{
  "_format": "hh-sol-artifact-1",
  "contractName": "TransactionManager",
  "sourceName": "contracts/TransactionManager.sol",
  "abi": [
    {
      "anonymous": false,
      "inputs": [
        {
          "indexed": true,
          "internalType": "address",
          "name": "sender",
          "type": "address"
        },
        {
          "indexed": true,
          "internalType": "address",
          "name": "receiver",
          "type": "address"
        },
        {
          "indexed": false,
          "internalType": "uint256",
          "name": "amount",
          "type": "uint256"
        }
      ],
      "name": "TransactionMade",
      "type": "event"
    },
    {
      "inputs": [
        {
          "internalType": "address",
          "name": "user",
          "type": "address"
        }
      ],
      "name": "getTransactions",
      "outputs": [
        {
          "components": [
            {
              "internalType": "address",
              "name": "sender",
              "type": "address"
            },
            {
              "internalType": "address",
              "name": "receiver",
              "type": "address"
            },
            {
              "internalType": "uint256",
              "name": "amount",
              "type": "uint256"
            },
            {
              "internalType": "uint256",
              "name": "timestamp",
              "type": "uint256"
            }
          ],
          "internalType": "struct TransactionManager.Transaction[]",
          "name": "",
          "type": "tuple[]"
        }
      ],
      "stateMutability": "nonpayable",
      "type": "function"
    },
    {
      "inputs": [
        {
          "internalType": "address",
          "name": "receiver",
          "type": "address"
        }
      ],
      "name": "sendTransaction",
      "outputs": [],
      "stateMutability": "payable",
      "type": "function"
    },
    {
      "inputs": [
        {
          "internalType": "address",
          "name": "",
          "type": "address"
        },
        {
          "internalType": "uint256",
          "name": "",
          "type": "uint256"
        }
      ],
      "name": "userTransactions",
      "outputs": [
        {
          "internalType": "address",
          "name": "sender",
          "type": "address"
        },
        {
          "internalType": "address",
          "name": "receiver",
          "type": "address"
        },
        {
          "internalType": "uint256",
          "name": "amount",
          "type": "uint256"
        },
        {
          "internalType": "uint256",
          "name": "timestamp",
          "type": "uint256"
        }
      ],
      "stateMutability": "view",
      "type": "function"
    }
  ],
  "bytecode": "0x608060405234801561001057600080fd5b5061099f806100206000396000f3fe6080604052600436106100345760003560e01c80630f8cda20146100395780632bd123fe14610076578063b842ec4414610092575b600080fd5b34801561004557600080fd5b50610060600480360381019061005b91906105d5565b6100d2565b60405161006d919061072e565b60405180910390f35b610090600480360381019061008b91906105d5565b61022f565b005b34801561009e57600080fd5b506100b960048036038101906100b4919061077c565b6104e5565b6040516100c994939291906107da565b60405180910390f35b60606000808373ffffffffffffffffffffffffffffffffffffffff1673ffffffffffffffffffffffffffffffffffffffff168152602001908152602001600020805480602002602001604051908101604052809291908181526020016000905b8282101561022457838290600052602060002090600402016040518060800160405290816000820160009054906101000a900473ffffffffffffffffffffffffffffffffffffffff1673ffffffffffffffffffffffffffffffffffffffff1673ffffffffffffffffffffffffffffffffffffffff1681526020016001820160009054906101000a900473ffffffffffffffffffffffffffffffffffffffff1673ffffffffffffffffffffffffffffffffffffffff1673ffffffffffffffffffffffffffffffffffffffff1681526020016002820154815260200160038201548152505081526020019060010190610132565b505050509050919050565b60003411610272576040517f08c379a00000000000000000000000000000000000000000000000000000000081526004016102699061087c565b60405180910390fd5b600060405180608001604052803373ffffffffffffffffffffffffffffffffffffffff1681526020018373ffffffffffffffffffffffffffffffffffffffff1681526020013481526020014281525090506000803373ffffffffffffffffffffffffffffffffffffffff1673ffffffffffffffffffffffffffffffffffffffff16815260200190815260200160002081908060018154018082558091505060019003906000526020600020906004020160009091909190915060008201518160000160006101000a81548173ffffffffffffffffffffffffffffffffffffffff021916908373ffffffffffffffffffffffffffffffffffffffff16021790555060208201518160010160006101000a81548173ffffffffffffffffffffffffffffffffffffffff021916908373ffffffffffffffffffffffffffffffffffffffff1602179055506040820151816002015560608201518160030155505060008273ffffffffffffffffffffffffffffffffffffffff16346040516103f5906108cd565b60006040518083038185875af1925050503d8060008114610432576040519150601f19603f3d011682016040523d82523d6000602084013e610437565b606091505b505090508061047b576040517f08c379a00000000000000000000000000000000000000000000000000000000081526004016104729061092e565b60405180910390fd5b8273ffffffffffffffffffffffffffffffffffffffff163373ffffffffffffffffffffffffffffffffffffffff167f4e14d3d55a435ef2aee46756984f50ee42f895efb7eb97f9c8ab2ea0961da735346040516104d8919061094e565b60405180910390a3505050565b6000602052816000526040600020818154811061050157600080fd5b9060005260206000209060040201600091509150508060000160009054906101000a900473ffffffffffffffffffffffffffffffffffffffff16908060010160009054906101000a900473ffffffffffffffffffffffffffffffffffffffff16908060020154908060030154905084565b600080fd5b600073ffffffffffffffffffffffffffffffffffffffff82169050919050565b60006105a282610577565b9050919050565b6105b281610597565b81146105bd57600080fd5b50565b6000813590506105cf816105a9565b92915050565b6000602082840312156105eb576105ea610572565b5b60006105f9848285016105c0565b91505092915050565b600081519050919050565b600082825260208201905092915050565b6000819050602082019050919050565b61063781610597565b82525050565b6000819050919050565b6106508161063d565b82525050565b60808201600082015161066c600085018261062e565b50602082015161067f602085018261062e565b5060408201516106926040850182610647565b5060608201516106a56060850182610647565b50505050565b60006106b78383610656565b60808301905092915050565b6000602082019050919050565b60006106db82610602565b6106e5818561060d565b93506106f08361061e565b8060005b8381101561072157815161070888826106ab565b9750610713836106c3565b9250506001810190506106f4565b5085935050505092915050565b6000602082019050818103600083015261074881846106d0565b905092915050565b6107598161063d565b811461076457600080fd5b50565b60008135905061077681610750565b92915050565b6000806040838503121561079357610792610572565b5b60006107a1858286016105c0565b92505060206107b285828601610767565b9150509250929050565b6107c581610597565b82525050565b6107d48161063d565b82525050565b60006080820190506107ef60008301876107bc565b6107fc60208301866107bc565b61080960408301856107cb565b61081660608301846107cb565b95945050505050565b600082825260208201905092915050565b7f416d6f756e74206d7573742062652067726561746572207468616e207a65726f600082015250565b600061086660208361081f565b915061087182610830565b602082019050919050565b6000602082019050818103600083015261089581610859565b9050919050565b600081905092915050565b50565b60006108b760008361089c565b91506108c2826108a7565b600082019050919050565b60006108d8826108aa565b9150819050919050565b7f4661696c656420746f2073656e64204574686572000000000000000000000000600082015250565b600061091860148361081f565b9150610923826108e2565b602082019050919050565b600060208201905081810360008301526109478161090b565b9050919050565b600060208201905061096360008301846107cb565b9291505056fea2646970667358221220f777d4dbb5b282482cd527528b30c0cfbb5385bab72b9790016e5414cc346b1b64736f6c63430008180033",
  "linkReferences": {},
  "deployedLinkReferences": {}
}